{
  "_format": "hh-sol-artifact-1",
  "contractName": "GatherDAO",
  "sourceName": "contracts/GatherDAO.sol",
  "abi": [
    {
      "inputs": [
        {
          "internalType": "uint256",
          "name": "_id",
          "type": "uint256"
        }
      ],
      "name": "buyTickets",
      "outputs": [],
      "stateMutability": "payable",
      "type": "function"
    },
    {
      "inputs": [
        {
          "internalType": "address",
          "name": "_organizer",
          "type": "address"
        },
        {
          "internalType": "string",
          "name": "_title",
          "type": "string"
        },
        {
          "internalType": "string",
          "name": "_description",
          "type": "string"
        },
        {
          "internalType": "uint256",
          "name": "_price",
          "type": "uint256"
        },
        {
          "internalType": "uint256",
          "name": "_deadline",
          "type": "uint256"
        },
        {
          "internalType": "uint256",
          "name": "_no_of_seats",
          "type": "uint256"
        },
        {
          "internalType": "string",
          "name": "_location",
          "type": "string"
        },
        {
          "internalType": "string",
          "name": "_typee",
          "type": "string"
        }
      ],
      "name": "createEvent",
      "outputs": [
        {
          "internalType": "uint256",
          "name": "",
          "type": "uint256"
        }
      ],
      "stateMutability": "nonpayable",
      "type": "function"
    },
    {
      "inputs": [
        {
          "internalType": "uint256",
          "name": "",
          "type": "uint256"
        }
      ],
      "name": "events",
      "outputs": [
        {
          "internalType": "address",
          "name": "organizer",
          "type": "address"
        },
        {
          "internalType": "string",
          "name": "title",
          "type": "string"
        },
        {
          "internalType": "string",
          "name": "description",
          "type": "string"
        },
        {
          "internalType": "uint256",
          "name": "price",
          "type": "uint256"
        },
        {
          "internalType": "uint256",
          "name": "deadline",
          "type": "uint256"
        },
        {
          "internalType": "uint256",
          "name": "no_of_seats",
          "type": "uint256"
        },
        {
          "internalType": "string",
          "name": "location",
          "type": "string"
        },
        {
          "internalType": "string",
          "name": "typee",
          "type": "string"
        }
      ],
      "stateMutability": "view",
      "type": "function"
    },
    {
      "inputs": [
        {
          "internalType": "uint256",
          "name": "_id",
          "type": "uint256"
        }
      ],
      "name": "getAttendees",
      "outputs": [
        {
          "internalType": "address[]",
          "name": "",
          "type": "address[]"
        }
      ],
      "stateMutability": "view",
      "type": "function"
    },
    {
      "inputs": [],
      "name": "getEvents",
      "outputs": [
        {
          "components": [
            {
              "internalType": "address",
              "name": "organizer",
              "type": "address"
            },
            {
              "internalType": "string",
              "name": "title",
              "type": "string"
            },
            {
              "internalType": "string",
              "name": "description",
              "type": "string"
            },
            {
              "internalType": "uint256",
              "name": "price",
              "type": "uint256"
            },
            {
              "internalType": "uint256",
              "name": "deadline",
              "type": "uint256"
            },
            {
              "internalType": "uint256",
              "name": "no_of_seats",
              "type": "uint256"
            },
            {
              "internalType": "string",
              "name": "location",
              "type": "string"
            },
            {
              "internalType": "address[]",
              "name": "attendees",
              "type": "address[]"
            },
            {
              "internalType": "string",
              "name": "typee",
              "type": "string"
            }
          ],
          "internalType": "struct GatherDAO.Event[]",
          "name": "",
          "type": "tuple[]"
        }
      ],
      "stateMutability": "view",
      "type": "function"
    },
    {
      "inputs": [],
      "name": "numberOfEvents",
      "outputs": [
        {
          "internalType": "uint256",
          "name": "",
          "type": "uint256"
        }
      ],
      "stateMutability": "view",
      "type": "function"
    }
  ],
  "bytecode": "0x6080604052600060015534801561001557600080fd5b50611863806100256000396000f3fe6080604052600436106100555760003560e01c80630b7914301461005a5780632b1b60d21461009e5780632f366637146100db578063404aa8f9146100f75780634a50c4a214610122578063e0c143771461014d575b600080fd5b34801561006657600080fd5b50610081600480360381019061007c9190610be7565b61018a565b604051610095989796959493929190610cf4565b60405180910390f35b3480156100aa57600080fd5b506100c560048036038101906100c09190610eef565b610412565b6040516100d29190611015565b60405180910390f35b6100f560048036038101906100f09190610be7565b61054c565b005b34801561010357600080fd5b5061010c610682565b60405161011991906112ea565b60405180910390f35b34801561012e57600080fd5b50610137610a92565b6040516101449190611015565b60405180910390f35b34801561015957600080fd5b50610174600480360381019061016f9190610be7565b610a98565b604051610181919061137b565b60405180910390f35b60006020528060005260406000206000915090508060000160009054906101000a900473ffffffffffffffffffffffffffffffffffffffff16908060010180546101d3906113cc565b80601f01602080910402602001604051908101604052809291908181526020018280546101ff906113cc565b801561024c5780601f106102215761010080835404028352916020019161024c565b820191906000526020600020905b81548152906001019060200180831161022f57829003601f168201915b505050505090806002018054610261906113cc565b80601f016020809104026020016040519081016040528092919081815260200182805461028d906113cc565b80156102da5780601f106102af576101008083540402835291602001916102da565b820191906000526020600020905b8154815290600101906020018083116102bd57829003601f168201915b505050505090806003015490806004015490806005015490806006018054610301906113cc565b80601f016020809104026020016040519081016040528092919081815260200182805461032d906113cc565b801561037a5780601f1061034f5761010080835404028352916020019161037a565b820191906000526020600020905b81548152906001019060200180831161035d57829003601f168201915b50505050509080600801805461038f906113cc565b80601f01602080910402602001604051908101604052809291908181526020018280546103bb906113cc565b80156104085780601f106103dd57610100808354040283529160200191610408565b820191906000526020600020905b8154815290600101906020018083116103eb57829003601f168201915b5050505050905088565b6000806000806001548152602001908152602001600020905042816004015410610471576040517f08c379a00000000000000000000000000000000000000000000000000000000081526004016104689061146f565b60405180910390fd5b898160000160006101000a81548173ffffffffffffffffffffffffffffffffffffffff021916908373ffffffffffffffffffffffffffffffffffffffff160217905550888160010190816104c5919061163b565b50878160020190816104d7919061163b565b5086816003018190555085816004018190555084816005018190555083816006019081610504919061163b565b5082816008019081610516919061163b565b506001600081548092919061052a9061173c565b91905055506001805461053d9190611784565b91505098975050505050505050565b60003490506000806000848152602001908152602001600020905080600701339080600181540180825580915050600190039060005260206000200160009091909190916101000a81548173ffffffffffffffffffffffffffffffffffffffff021916908373ffffffffffffffffffffffffffffffffffffffff16021790555060008160000160009054906101000a900473ffffffffffffffffffffffffffffffffffffffff1673ffffffffffffffffffffffffffffffffffffffff1683604051610616906117e9565b60006040518083038185875af1925050503d8060008114610653576040519150601f19603f3d011682016040523d82523d6000602084013e610658565b606091505b50509050801561067c57600182600501546106739190611784565b82600501819055505b50505050565b6060600060015467ffffffffffffffff8111156106a2576106a1610dc4565b5b6040519080825280602002602001820160405280156106db57816020015b6106c8610b3b565b8152602001906001900390816106c05790505b50905060005b600154811015610a8a576000806000838152602001908152602001600020905080604051806101200160405290816000820160009054906101000a900473ffffffffffffffffffffffffffffffffffffffff1673ffffffffffffffffffffffffffffffffffffffff1673ffffffffffffffffffffffffffffffffffffffff168152602001600182018054610774906113cc565b80601f01602080910402602001604051908101604052809291908181526020018280546107a0906113cc565b80156107ed5780601f106107c2576101008083540402835291602001916107ed565b820191906000526020600020905b8154815290600101906020018083116107d057829003601f168201915b50505050508152602001600282018054610806906113cc565b80601f0160208091040260200160405190810160405280929190818152602001828054610832906113cc565b801561087f5780601f106108545761010080835404028352916020019161087f565b820191906000526020600020905b81548152906001019060200180831161086257829003601f168201915b505050505081526020016003820154815260200160048201548152602001600582015481526020016006820180546108b6906113cc565b80601f01602080910402602001604051908101604052809291908181526020018280546108e2906113cc565b801561092f5780601f106109045761010080835404028352916020019161092f565b820191906000526020600020905b81548152906001019060200180831161091257829003601f168201915b50505050508152602001600782018054806020026020016040519081016040528092919081815260200182805480156109bd57602002820191906000526020600020905b8160009054906101000a900473ffffffffffffffffffffffffffffffffffffffff1673ffffffffffffffffffffffffffffffffffffffff1681526020019060010190808311610973575b505050505081526020016008820180546109d6906113cc565b80601f0160208091040260200160405190810160405280929190818152602001828054610a02906113cc565b8015610a4f5780601f10610a2457610100808354040283529160200191610a4f565b820191906000526020600020905b815481529060010190602001808311610a3257829003601f168201915b505050505081525050838381518110610a6b57610a6a6117fe565b5b6020026020010181905250508080610a829061173c565b9150506106e1565b508091505090565b60015481565b6060600080838152602001908152602001600020600701805480602002602001604051908101604052809291908181526020018280548015610b2f57602002820191906000526020600020905b8160009054906101000a900473ffffffffffffffffffffffffffffffffffffffff1673ffffffffffffffffffffffffffffffffffffffff1681526020019060010190808311610ae5575b50505050509050919050565b604051806101200160405280600073ffffffffffffffffffffffffffffffffffffffff16815260200160608152602001606081526020016000815260200160008152602001600081526020016060815260200160608152602001606081525090565b6000604051905090565b600080fd5b600080fd5b6000819050919050565b610bc481610bb1565b8114610bcf57600080fd5b50565b600081359050610be181610bbb565b92915050565b600060208284031215610bfd57610bfc610ba7565b5b6000610c0b84828501610bd2565b91505092915050565b600073ffffffffffffffffffffffffffffffffffffffff82169050919050565b6000610c3f82610c14565b9050919050565b610c4f81610c34565b82525050565b600081519050919050565b600082825260208201905092915050565b60005b83811015610c8f578082015181840152602081019050610c74565b60008484015250505050565b6000601f19601f8301169050919050565b6000610cb782610c55565b610cc18185610c60565b9350610cd1818560208601610c71565b610cda81610c9b565b840191505092915050565b610cee81610bb1565b82525050565b600061010082019050610d0a600083018b610c46565b8181036020830152610d1c818a610cac565b90508181036040830152610d308189610cac565b9050610d3f6060830188610ce5565b610d4c6080830187610ce5565b610d5960a0830186610ce5565b81810360c0830152610d6b8185610cac565b905081810360e0830152610d7f8184610cac565b90509998505050505050505050565b610d9781610c34565b8114610da257600080fd5b50565b600081359050610db481610d8e565b92915050565b600080fd5b600080fd5b7f4e487b7100000000000000000000000000000000000000000000000000000000600052604160045260246000fd5b610dfc82610c9b565b810181811067ffffffffffffffff82111715610e1b57610e1a610dc4565b5b80604052505050565b6000610e2e610b9d565b9050610e3a8282610df3565b919050565b600067ffffffffffffffff821115610e5a57610e59610dc4565b5b610e6382610c9b565b9050602081019050919050565b82818337600083830152505050565b6000610e92610e8d84610e3f565b610e24565b905082815260208101848484011115610eae57610ead610dbf565b5b610eb9848285610e70565b509392505050565b600082601f830112610ed657610ed5610dba565b5b8135610ee6848260208601610e7f565b91505092915050565b600080600080600080600080610100898b031215610f1057610f0f610ba7565b5b6000610f1e8b828c01610da5565b985050602089013567ffffffffffffffff811115610f3f57610f3e610bac565b5b610f4b8b828c01610ec1565b975050604089013567ffffffffffffffff811115610f6c57610f6b610bac565b5b610f788b828c01610ec1565b9650506060610f898b828c01610bd2565b9550506080610f9a8b828c01610bd2565b94505060a0610fab8b828c01610bd2565b93505060c089013567ffffffffffffffff811115610fcc57610fcb610bac565b5b610fd88b828c01610ec1565b92505060e089013567ffffffffffffffff811115610ff957610ff8610bac565b5b6110058b828c01610ec1565b9150509295985092959890939650565b600060208201905061102a6000830184610ce5565b92915050565b600081519050919050565b600082825260208201905092915050565b6000819050602082019050919050565b61106581610c34565b82525050565b600082825260208201905092915050565b600061108782610c55565b611091818561106b565b93506110a1818560208601610c71565b6110aa81610c9b565b840191505092915050565b6110be81610bb1565b82525050565b600081519050919050565b600082825260208201905092915050565b6000819050602082019050919050565b60006110fc838361105c565b60208301905092915050565b6000602082019050919050565b6000611120826110c4565b61112a81856110cf565b9350611135836110e0565b8060005b8381101561116657815161114d88826110f0565b975061115883611108565b925050600181019050611139565b5085935050505092915050565b60006101208301600083015161118c600086018261105c565b50602083015184820360208601526111a4828261107c565b915050604083015184820360408601526111be828261107c565b91505060608301516111d360608601826110b5565b5060808301516111e660808601826110b5565b5060a08301516111f960a08601826110b5565b5060c083015184820360c0860152611211828261107c565b91505060e083015184820360e086015261122b8282611115565b915050610100830151848203610100860152611247828261107c565b9150508091505092915050565b60006112608383611173565b905092915050565b6000602082019050919050565b600061128082611030565b61128a818561103b565b93508360208202850161129c8561104c565b8060005b858110156112d857848403895281516112b98582611254565b94506112c483611268565b925060208a019950506001810190506112a0565b50829750879550505050505092915050565b600060208201905081810360008301526113048184611275565b905092915050565b600082825260208201905092915050565b6000611328826110c4565b611332818561130c565b935061133d836110e0565b8060005b8381101561136e57815161135588826110f0565b975061136083611108565b925050600181019050611341565b5085935050505092915050565b60006020820190508181036000830152611395818461131d565b905092915050565b7f4e487b7100000000000000000000000000000000000000000000000000000000600052602260045260246000fd5b600060028204905060018216806113e457607f821691505b6020821081036113f7576113f661139d565b5b50919050565b7f446561646c696e652073686f756c642062652061206461746520696e2066757460008201527f7572650000000000000000000000000000000000000000000000000000000000602082015250565b6000611459602383610c60565b9150611464826113fd565b604082019050919050565b600060208201905081810360008301526114888161144c565b9050919050565b60008190508160005260206000209050919050565b60006020601f8301049050919050565b600082821b905092915050565b6000600883026114f17fffffffffffffffffffffffffffffffffffffffffffffffffffffffffffffffff826114b4565b6114fb86836114b4565b95508019841693508086168417925050509392505050565b6000819050919050565b600061153861153361152e84610bb1565b611513565b610bb1565b9050919050565b6000819050919050565b6115528361151d565b61156661155e8261153f565b8484546114c1565b825550505050565b600090565b61157b61156e565b611586818484611549565b505050565b5b818110156115aa5761159f600082611573565b60018101905061158c565b5050565b601f8211156115ef576115c08161148f565b6115c9846114a4565b810160208510156115d8578190505b6115ec6115e4856114a4565b83018261158b565b50505b505050565b600082821c905092915050565b6000611612600019846008026115f4565b1980831691505092915050565b600061162b8383611601565b9150826002028217905092915050565b61164482610c55565b67ffffffffffffffff81111561165d5761165c610dc4565b5b61166782546113cc565b6116728282856115ae565b600060209050601f8311600181146116a55760008415611693578287015190505b61169d858261161f565b865550611705565b601f1984166116b38661148f565b60005b828110156116db578489015182556001820191506020850194506020810190506116b6565b868310156116f857848901516116f4601f891682611601565b8355505b6001600288020188555050505b505050505050565b7f4e487b7100000000000000000000000000000000000000000000000000000000600052601160045260246000fd5b600061174782610bb1565b91507fffffffffffffffffffffffffffffffffffffffffffffffffffffffffffffffff82036117795761177861170d565b5b600182019050919050565b600061178f82610bb1565b915061179a83610bb1565b92508282039050818111156117b2576117b161170d565b5b92915050565b600081905092915050565b50565b60006117d36000836117b8565b91506117de826117c3565b600082019050919050565b60006117f4826117c6565b9150819050919050565b7f4e487b7100000000000000000000000000000000000000000000000000000000600052603260045260246000fdfea2646970667358221220c25f3a6c91678e3fa68284a65a8e0dda8453468d1fc7cce8f3e63bd65af2b8fb64736f6c63430008120033",
  "linkReferences": {},
  "deployedLinkReferences": {}
}